:020000040800F2
:10000000D00F00207D040008910100086904000859
:100010006904000869040008690400080000000081
:100020000000000000000000000000005D05000866
:10003000690400080000000005050008550F0008CD
:100040009906000899060008990600089906000814
:100050009906000899060008990600089906000804
:1000600099060008990600089906000899060008F4
:1000700099060008990600089906000899060008E4
:1000800099060008990600089906000899060008D4
:1000900099060008990600089906000899060008C4
:1000A00099060008990600089906000899060008B4
:1000B00099060008990600089906000899060008A4
:1000C0009906000899060008990600089906000894
:1000D0009906000899060008990600089906000884
:0C00E0009906000899060008990600081F
:1000EC00014B1B68184700BF0000002030B585B0DD
:1000FC0004460D4610220021684602F00DFC022336
:10010C008DF80230044B2A4621466846019301F0D3
:10011C00E5FC05B030BD00BFED000008014B1860D8
:10012C00704700BF0000002080B505460E461746FC
:10013C00984601F087FB034602F0F6FB0446DFF815
:10014C001890424649F8003039463046A84754F8D2
:10015C00090000F0A3F900BF08000000024B034A9D
:10016C0000201A60704700BF6400002000127A0063
:10017C00034A0020536823F002035360704700BF0A
:10018C00002004E008B5034B1B689847BDE8084005
:10019C0000F034B80400002030BFFFF7FDBF00BFF3
:1001AC00114B124A2DE9F041D518013DB5FBF3F581
:1001BC00DFF83C805D430F4B074608EB0304013C22
:1001CC00B4FBF3F403FB04540E1B30460A4902F053
:1001DC0095FB701942460021083E02F09DFB7E669D
:1001EC0004F10800BDE8F0810100000000000000EF
:1001FC000400000004000000F42B0008044B996874
:10020C005869884203D003494FF080520A60704706
:10021C009802002004ED00E0134B9A6A12F0007F64
:10022C009A6A14BF1E201D2012F0807F9A6A18BF94
:10023C001F2012F4002F9A6A18BF212012F4802F6D
:10024C009A6A18BF222012F4003F9A6A18BF232022
:10025C0012F4803F9A6A18BF24206FEA02426FEAB8
:10026C0012429A62704700BF00ED00E010B5164BC9
:10027C009A6A9C6A12F4805F14BF1722162214F437
:10028C00006F9C6A18BF1822A40509D59A6B9A6A4C
:10029C00120404D518B19A6A22F400429A62192207
:1002AC00094B986A10F4806F986A18BF1A2210F4E0
:1002BC00807F986A40F47F4098624FF000030CBF37
:1002CC0010461B200B7010BD00ED00E010B5154B57
:1002DC000246986A9C6A10F0100F14BF112010206F
:1002EC0014F0080F9C6A18BF1220A40709D5586B8C
:1002FC00986A000604D51AB19A6A22F080029A62B2
:10030C001320084B9A6A12F0010F9A6A18BF142036
:10031C00D20658BF9A6A9A6A42F0FF029A62002388
:10032C000B7010BD00ED00E0F0B5474B04465B6868
:10033C0000258BB0C3F3080385F31188BFF36F8FCF
:10034C0002F07F40B0F17F4F11D102F00C00082871
:10035C000DD010074CBF0C4601250022033B8DF835
:10036C000720032B05D8DFE803F02462665F2C46D8
:10037C00F3E700239DF80720CAB902AE04F1200769
:10038C00324620686168083403C2BC421646F7D175
:10039C00099A002D53D0C2F3080121B96FEA5222F9
:1003AC006FEA42220992184602A901F06DFE0BB0C9
:1003BC00F0BD254BDA6A9107DBD4DA6A002AD8DB68
:1003CC00DA6A5200D5D55A69A16942F480725A6131
:1003DC00BFF34F8FBFF36F8F5A6931F8021C22F4B1
:1003EC0080725A61BFF34F8FBFF36F8F4DF602725D
:1003FC00914209D09A6AD2B242B101200DF10701A3
:10040C00FFF764FF0346B5E72368B3E79A6A12F473
:10041C007F4F05D001200DF10701FFF727FFF1E712
:10042C009B6AB3F5803FA4D3FFF7F6FEEAE7002002
:10043C000DF10701E4E700200DF10701EDE722F4CF
:10044C00FF7222F00102ADE700ED00E0024A5369B1
:10045C0043F010035361704700ED00E0EFF30880A8
:10046C00EFF3098101B57246FFF75EFF01BD00BFD6
:10047C00102080F3118808484FF40061401880F375
:10048C000988EFF314800221084380F31488BFF32A
:10049C006F8F00F091F80000D0020020084B9B6891
:1004AC0083420BD1EFF3058343B1064B5A6842F0FC
:1004BC0080525A605A6A22F400425A6202F075B9AC
:1004CC009802002000ED00E06FF00A01084A9368E2
:1004DC00D966084998664B6843F080534B600023FB
:1004EC0083F31188BFF36F8F9368D86E704700BF8A
:1004FC009802002000ED00E012498A684FF03000AD
:10050C001044EFF3098C80E8F01F102080F3128860
:10051C00BFF36F8F0C4F4FF000664A698A603E60E4
:10052C004FF0640414192068084C2060906E00236E
:10053C00936680F3118802F1300090E8F01F8CF381
:10054C00098870479802002004ED00E0A801002003
:10055C001EF0040F0CBFEFF30880EFF309808169E4
:10056C0011F8021C0229FFD001B501F08FFD01BD6D
:10057C0040B2002807DB01234109034A00F01F00A9
:10058C00834042F82130704700E100E040B200287F
:10059C0001F10101ACBF00F16040064B4FEA0111C3
:1005AC00C9B2ABBF00F5614000F00F0080F800133A
:1005BC001954704714ED00E008B5094B094A23F0B3
:1005CC00604323F07F039360BFF34F8FBFF36F8FB4
:1005DC0000F022FE01F03CF900F04CF800F06AFE4D
:1005EC000000000800ED00E042F8203C009B0B49A5
:1005FC0042F81C3C019B21F0010142F8183C029B83
:10060C0042F8081C42F8143C4FF0807342F8043C4A
:10061C000023203A02658366704700BF350100084D
:10062C00084B9860406E084B1860104681F309889F
:10063C00002163B681F31188BFF36F8F0022002372
:10064C00FFF772FD98020020A8010020014910223A
:10065C000A60704710ED00E072B6404080F31188DC
:10066C00BFF36F8FBFF34F8F30BF62B6BFF36F8F87
:10067C00704700BF002310210348C21801332B2BF5
:10068C0082F80013F9D1704700E100E001B5EFF3F7
:10069C000580A0F110004FEAC0000449014409C9CB
:1006AC009847BDE801400249084700009C2A000811
:1006BC000902000808B5024B1B689847002008BDCA
:1006CC00AC010020034B044A1860937843F00203FA
:1006DC0093707047AC0100200800002008B5064953
:1006EC00064821F00701C1F1005202F5A04201F0C9
:1006FC007EFC002008BD00BFD70F0020B0010020F9
:10070C002DE9F041054600244FF001080D4E0E4F27
:10071C002B78E2B298181F280DDC726908FA00F3E6
:10072C0033EA020207D1736157F830301BB107EB83
:10073C00C002516898476A780134E3B29A42E7D212
:10074C00BDE8F08100040140BC010020044B1844BA
:10075C0000230133994200F8012BFADC704700BFEB
:10076C007000002010B4064B0246185601230549B0
:10077C0093400C6823430B6010BCFFF7F9BE00BF1D
:10078C0070000020000401401F2806DC01220349F0
:10079C0082400B6823EA02030B607047000401409F
:1007AC0003292AD8DFE801F0020E141F0122134B93
:1007BC008240996821EA02019960D96821EA020213
:1007CC00DA60704701220D4B824099681143F3E7C0
:1007DC0001220A4B8240D9681143D960996821EAF9
:1007EC0002029A607047012303FA00F0034B9A68E7
:1007FC0002439A60DA681043D860704700040140E5
:10080C0030B50A4B53F830408C4204D103EBC00591
:10081C006D68954205D034B943F8301003EBC00332
:10082C005A60002030BD6FF00F00FBE7BC010020C8
:10083C000022034B43F8302003EBC0035A6070478F
:10084C00BC0100200D4B18680B68052B14D008D880
:10085C00012B03D0023B022B09D800201060002092
:10086C007047182BFAD01C2B04D0142BF6D06FF039
:10087C00850070474008F1E70148EFE7640000206D
:10088C0000127A00F8B501F0BDFC00F023FC334CEB
:10089C00334A63681578C3F30313D35C314F20FAE2
:1008AC0003F647FA05F5AE4202D2284600F038FCB2
:1008BC00236823F480232360236843F4803323606C
:1008CC0023689803FCD5636803F00C03082B15D13F
:1008DC002368990706D4236843F001032360236837
:1008EC009A07FCD5636823F003036360636813F015
:1008FC000C0FFBD1636823F0F0036360236823F0D3
:10090C008073236000F032F8236843F08073236017
:10091C0023689B01FCD5636823F0F0036360636874
:10092C0023F0030343F002036360636803F00C03DA
:10093C00082BFAD1AE4202D3284600F0F1FB0A4B49
:10094C0000201F60636823F4E06343F480636360FA
:10095C00636823F460536360F8BD00BF001002406D
:10096C00922E000800A24A0464000020054A536835
:10097C0023F47C1343F4E8135360536823F480038B
:10098C00536070470010024008B5074801F0A0FE04
:10099C0038B10648FFF796FE0448FFF7BFFB00206E
:1009AC0008BD6FF01200FBE7882A0008BD0900089B
:1009BC000A2838B50446074D04D1AB680D212846EA
:1009CC005B689847AB6803485B68E1B29847204680
:1009DC0038BD00BF882A000838B503690446586042
:1009EC00084D284601F074FE40B16168AB6828469A
:1009FC001B680C31984700EAE07038BD6FF01200AC
:100A0C00FBE700BFC0290008F8B51746B7F5001F73
:100A1C000C461D464668026923D10F2301F00302E0
:100A2C0004329200934043EA9103DAB22C49023229
:100A3C0051F82220190C02EA134391FAA1F2B2FAEE
:100A4C0082F2D340B2689A4209D12046FFF79CFE4D
:100A5C002046FFF7EDFE00212046FFF7A1FE002007
:100A6C00F8BDB7F5800F35D020461E49FFF7C8FEFC
:100A7C0098BB0F2204F0030304339B009A4042EA14
:100A8C009402D3B29B0003F1804303F58033B16829
:100A9C009E68100C26EA124690FAA0F2B2FA82F284
:100AAC0001FA02F23243B5F1806F9A600ED0B5F1C3
:100ABC00C06F0DD005F17E43594259414900204683
:100ACC00FFF76EFE2046FFF74DFEC8E70121F6E763
:100ADC000321F4E76FF08500C2E76FF00F00BFE76A
:100AEC0000000140292300082DE9F3470368044660
:100AFC00C3F38F25C3F38923FBB101228A4223D38D
:100B0C00334A15F0010F906940F001009061926931
:100B1C004FEA132002F001020192019A2D4AC3F30D
:100B2C00440300FA03F009BF5368D369034343F04D
:100B3C00E06316BF03435360D361274F04EBC10638
:100B4C00A6420ED1002007E054F83200C0F38920F1
:100B5C00984204D06FF0150002B0BDE8F087013266
:100B6C00CCE7D4E9002512F003090FD145F041057B
:100B7C00C2F3870AC2F383120A2AEBD857F82280F1
:100B8C00B8F1000F13D16FF01200E5E7B9F1020FC5
:100B9C00EED0B9F1010F07D115F4C07F0CBF45F0B1
:100BAC00020545F00405E3E745F00105E0E74046A2
:100BBC0001F08EFD0028E6D04B462A4640460AF04E
:100BCC000F0101F050FC002804F10804B8DAC3E767
:100BDC0000100240000001407C2C0008F8B50C46C7
:100BEC00036941685E682379012B33D09A1E554204
:100BFC005541AD026279022A96BF354F4FF4005C25
:100C0C0037F812C0A279042A27D0003B18BF012361
:100C1C001B03E279012A0A680CBF4FF440770027C6
:100C2C00A642D1681CD121F4B05129430B43D360A7
:100C3C00136923F4405343EA0C03136143681A68A5
:100C4C00536923F440733B4353613168BDE8F8406A
:100C5C0001F072BC4FF4C065CCE74FF48053D8E779
:100C6C0001F4C0618D421FBFD16821F4C0612943DA
:100C7C00D160426811680A6902F4405294451FBF62
:100C8C000A6922F4405242EA0C020A614268116875
:100C9C00CA6802F4805293421FBFCA6822F4805281
:100CAC001343CB6043681A68536903F440739F4243
:100CBC001FBF536923F440733B435361216833686E
:100CCC00994203D001F038FC23683360F8BD00BFB3
:100CDC00CC2D00082DE9F0410C4603694768D3F888
:100CEC0004800B79A579012B497936D102294FD98A
:100CFC00042D4AD04FF480564FF4C06203238B422C
:100D0C0043D1002E7CD0002A14BF03220422AA4215
:100D1C003BD1E3796BB1012B37D13B683B4A934212
:100D2C0007D0A2F57442934203D002F5806293423D
:100D3C002BD13A682146D36823F40053D360FFF7D4
:100D4C004DFF3A68D36843F40053D36094E8030032
:100D5C0088E803000020BDE8F081022B08D10229AD
:100D6C0021D9042D11D04FF480624FF48056C5E781
:100D7C0002290A461FD9042D04D133B94FF48056E9
:100D8C001A46BBE763BB0329C1D06FF08500E2E7CD
:100D9C001F4A042D32F811C0F7D04FF4C062033B48
:100DAC00012B10D8F1E71A4A042D32F811C0ECD0FF
:100DBC004FF48062F3E7164A042D32F811C016D1B5
:100DCC00002BE2D11A464FF48056BCF5805F13D04D
:100DDC00BCF5405F12D0BCF1000F8FD101238EE720
:100DEC00033B012BD1D90022BFE70022D7E7002B10
:100DFC00FBD11A461E46E8E7002380E702237EE774
:100E0C00002A14BF0222032281E700BF00380140F0
:100E1C00CC2D000873B50546446806692848306037
:100E2C0001F056FC18B96FF0120002B070BD3068BA
:100E3C00E16883681B6898470028F6DB0021206A6C
:100E4C0001AA01F025FB0028EFDB019B0022197998
:100E5C001868FFF749FE0028E7DB6C682B692268ED
:100E6C005E68D36823F40053D360606801F030FCF3
:100E7C000028D8D0D4E901018368DB6803B1984716
:100E8C00226802F10C0353E8003F43F00C0302F11B
:100E9C000C0040E800310029F3D131462846FFF719
:100EAC009DFE237D23B12268536943F008035361EF
:100EBC0022680020D36843F40053D360B5E700BF29
:100ECC00C02900084FF0E02310B50F499C691A693E
:100EDC0008689B690D4902F4803234B993B9034612
:100EEC004AB90A681044C01A10BD002B08BF03464B
:100EFC000AB9A342F5D90A6802440A604FF0E0220D
:100F0C001269EEE70446F3E7900200208C02002001
:100F1C0010220A4B002083F823204FF4E152084B97
:100F2C001A60084B41F61F4218604FF0E0235A61DB
:100F3C0098611A6942F007021A61704700ED00E0EF
:100F4C00900200208C02002010B5FFF7BBFF104967
:100F5C00104B0868D3E90042001942F10002C3E9C2
:100F6C00000200230B604FF4E1530B4AD2E900411D
:100F7C00001BB0FBF3F043431B1941F10001C2E924
:100F8C00003100F03BFDBDE81040FFF737B900BF62
:100F9C008C020020A0000020980000202DE9F041D8
:100FAC00DFF8E08099B1421C0BD14FF0E0221369BD
:100FBC0023F0010313614FF07F43C8F80030BDE804
:100FCC00F081D8F80060012807DC00270BE0431CF7
:100FDC00D8F80060F7D140F6191040F61A13984271
:100FEC00A8BF1846471E4FF01003EFF3118583F38B
:100FFC001288BFF36F8FFFF765FF4FF0E023224C91
:10100C009969D4E9002380184FF0000243F10003E2
:10101C00C4E900031D4B1A601D4B1A68831A2ED4A9
:10102C004FF4E15C0CFB073303F5E0531F33B3FBC8
:10103C00FCF7131A0CFB0733B3F5806F38BF4FF472
:10104C008063144A934228BF13464FF0E022C8F83D
:10105C000030013B90695361002381429361A1EB05
:10106C00000338BF9B19D4E900125B1842F100024F
:10107C00C4E9003285F31188BFF36F8F9FE74FF4FB
:10108C008063E2E790020020A00000208C02002088
:10109C009800002020DFFF0038B54FF01003EFF36D
:1010AC00118583F31288BFF36F8F084B1C68084BB4
:1010BC001B68E41AFFF706FF85F31188BFF36F8FE7
:1010CC004FF4E1532044B0FBF3F038BDA0000020F6
:1010DC00980000200D4A536803F00C01082912D126
:1010EC000B48C3F38341DB03405C09D55368094AC1
:1010FC00C3F340435043084AD35CB0FBF3F0704752
:10110C00064B584370470348704700BF001002401D
:10111C00A42E000800127A00A22E000800093D003F
:10112C00D8B10F4B984216D80E4B984294BF002062
:10113C0001200D4A136823F007030343136013685F
:10114C0003F0070398421CBF136803F00703C01A8F
:10115C0018BF012070470220EBE70120704700BF49
:10116C00006CDC0200366E010020024038B54FF0F6
:10117C001003EFF3118583F31288BFF36F8F064BC7
:10118C009C6801F0B9FA85F31188BFF36F8F204684
:10119C00BDE83840FFF782B998020020104B70B5BB
:1011AC0053F82040013053F82060A64200D870BD9F
:1011BC00D4E9003595B153B12846984738B1002889
:1011CC00B8BF4042FF28A8BFFF20EB681870EA6840
:1011DC00537843F0010353700834E6E79847FBE774
:1011EC00B42D0008012208B5094B03201A70FFF733
:1011FC00D5FF00F06DFC0420FFF7D0FF00F0F8F8ED
:10120C0001F016FB034A137B23F00103137308BD93
:10121C00C80200201801002008B50348034A002129
:10122C00121A01F06CFA08BD98000020CC020020C4
:10123C00702370B5194E012203FB0066002386B0A3
:10124C00CDE904230F220193CDE902321423044685
:10125C00134D144903FB005501EB0021124B4FF4C5
:10126C0080723046009500F08BF8737B2C7423F061
:10127C00040373730D4B013403EBC4236B60EE60FA
:10128C00BFF35B8F0A4B53E8001F013143E8001298
:10129C00002AF8D1BFF35B8F06B070BDA800002008
:1012AC0098020020D00A0020F9270008D002002064
:1012BC009402002080B50020A2B0FFF76FFF294BED
:1012CC0083F30888284C00256369284E43F4007387
:1012DC006361F02384F82230E57725766576A57670
:1012EC0084F82050636A224F43F4E0236362FFF7D3
:1012FC00ADF8FFF7ABF94FF0FF33A362E36240F2B6
:10130C000113ADF8243006ABB3601E9501F0DFF984
:10131C000120FFF743FF0220164CFFF73FFF00F0C0
:10132C0089FA154B74610593012314494FF48062BB
:10133C00CDE9035320463B46CDE90155009500F01D
:10134C001FF80646627B204622F00402627301F00D
:10135C00ECF92846FFF76CFF3A4631462046FFF77A
:10136C005FF900BFD00A002000ED00E098020020D9
:10137C00F111000818010020B42E0008D00B002039
:10138C002DE9FF41984600F15803C0E916330E9B36
:10139C00002603730423D51D437325F007050D9B0D
:1013AC000D440F4683732946C0E906668660C673F2
:1013BC000446FEF7F5FE0C9B073002930B9B20F0C6
:1013CC00070001930A9B2D1A00932A46434639467F
:1013DC002046FFF709F9054B66659B6803B11B6E48
:1013EC002846236604B0BDE8F08100BF98020020B7
:1013FC0070B5224C224D86B02646AE4204F1300424
:10140C000AD300F0E7F91D4C1E4EAC4220D306B0B7
:10141C00BDE8704000F0F2B954F80C3C059354F858
:10142C00103C049354F8143C039354F8183C029366
:10143C0054F81C3C019354F8203C009354E90A23C3
:10144C0054E90C01FFF79CFF54F8303C5E65D3E780
:10145C00D4E90A23B3F1FF3F08BFB2F1FF3F05D037
:10146C0052EA0301206803D100F082F93034CCE752
:10147C003146183000F04CFAF8E700BFF42B0008A6
:10148C00F42B00089B270008C3897F2B12D80A4B2A
:10149C001B6863B1094B90F90E201B689A4209DB5B
:1014AC00437BDB0606D1064BC31A18BF012303F09E
:1014BC00010070470023FAE7C0020020BC020020A4
:1014CC00A80000200122044BC01A044BC010584342
:1014DC00034B1A54704700BF88010020ABAAAAAA7C
:1014EC00C902002070B50E4B0E4C1E7C182303FB5A
:1014FC0006440546204601F085F900220A4B284691
:10150C009A55FFF7C1FF48B1084B2046BDE8704023
:10151C001A680749013AD31700F0FAB970BD00BF39
:10152C009802002088010020C9020020C00200207F
:10153C00D114000838B50D4D2B4653F8184F9C426A
:10154C0000D004B9EC68AB6838B95A7BD20604D128
:10155C00A26912B9DA897F2A05D89C4202D02046AA
:10156C00FFF7C0FF23466B6138BD00BF9802002017
:10157C0070B590F90D200146002A437B04DA03F084
:10158C007F03437301F0BFF8154A4B7B104663F0A1
:10159C007F034B7350F8183FD469834208BF002374
:1015AC0023B9C1E900042160D1610CE091F90E501E
:1015BC0093F90E60B5420ED0AE420CDD5868C1E90D
:1015CC000030016059609068BDE87040431A584281
:1015DC005841FFF7AFBF9C42E3D01B68E0E700BF68
:1015EC009802002070B490F90D30427B002B29DB5F
:1015FC00D30627D183692BBB134962F07F02427358
:10160C000A4652F8184F944218BF2346CC6923B9A6
:10161C00C0E900242060C8610CE090F90E5093F9E9
:10162C000E60B5420AD0AE4208DD5A68C0E90032FD
:10163C0010605860002070BCFFF77CBFA342E7D05D
:10164C001B68E4E770BC704798020020002A2DE963
:10165C00F0410E460CBF10210821437B0446194271
:10166C000AD10B43DD0903F09F0211D14273082903
:10167C0014D00120FFF75EFF1B4B9B68A3422CD1BB
:10168C00EFF305834BBB3046BDE8F041FEF71CBFC2
:10169C0003F01F03437301F036F8E8E7A36813B1B6
:1016AC00204601F038F804F1180001F0ABF84FF0C7
:1016BC00000804F15807A56DBD42DAD0002DD8D032
:1016CC00284601F028F805F1180001F09BF828468F
:1016DC00C5F86C80FFF786FFEDE786F31188BFF342
:1016EC006F8FBDE8F08100BF9802002038B54FF035
:1016FC001003EFF3118583F31288BFF36F8F104B38
:10170C00104A9C681068A04206D1FFF7EBFE85F3E7
:10171C001188BFF36F8F38BD00211B7C11600A4A02
:10172C00D35C002BF3D02046FFF7AEFE0028EED0A2
:10173C00637BDB0602D12046FFF71AFF2046E4E765
:10174C0098020020B8020020C902002049B9EFF32A
:10175C00058030B9054B5A699B689A4201D0FEF757
:10176C00B3BE81F31188BFF36F8F704798020020CE
:10177C0010B54FF01002EFF3118482F31288BFF30F
:10178C006F8F427B510704D484F31188BFF36F8FA2
:10179C0010BD22F004024273FFF724FF2146BDE87E
:1017AC0010400148FFF7D2BFCA020020034648B9D7
:1017BC00EFF3058232B9064A51699268914201D021
:1017CC00FEF782BE83F31188BFF36F8F704700BFA3
:1017DC00980200204FF01003EFF3118183F312886D
:1017EC00BFF36F8F044B9A68D37B013BD37381F3A8
:1017FC001188BFF36F8F70479802002010B54FF01F
:10180C001003EFF3118483F31288BFF36F8F084B2F
:10181C0000209A68D37B0133D373FFF78BFE84F3DC
:10182C001188BFF36F8FBDE8104000F0B4BF00BF4C
:10183C0098020020024B03F11802C3E906227047FC
:10184C0098020020014B9868704700BF9802002056
:10185C0008B50648064A0749121A00F052FFBDE8BF
:10186C000840054A0549064800F04BBF000000201F
:10187C00960000200C2F0008000000000C2F000820
:10188C0000000020034B1B680BB9FFF705BC0020C0
:10189C00704700BFC402002010B50E4B1C689C4260
:1018AC0004D1FFF7EFFF6FF0004010BDFFF7EAFF28
:1018BC00002CF8D0D4E904321B1A62EBE072B3F1BD
:1018CC00004F72F10001EEDA002AACBF184600207E
:1018DC00EBE700BF6800002030B570B10B4B5B68C4
:1018EC0098420AD0036843B1D3E90421D0E90445F6
:1018FC00121941EB0501C3E90421D0E90032136050
:10190C005A600023C0E9003330BD00BF68000020DE
:10191C00B3F1FF3F08BFB2F1FF3FF8B504461D46D7
:10192C0016465CD081604FF01003EFF3118783F300
:10193C001288BFF36F8F013275F1FF3324DA6FF029
:10194C0001032C49D1E900209B1A4FF0FF3262EBC6
:10195C0000009E1B60EB0500012E70F1000301DA04
:10196C0001260020C4E90460234ED6F800C0756837
:10197C00B44508BF4FF0000CBCF1000F0DD1C4E909
:10198C0000652C6074601CE0FFF77CFF013645F1AC
:10199C000005361845EBE070E4E7DCE90420D4E9F7
:1019AC000431934271EB000E1ADAD21ADCF80430CF
:1019BC0060EB0100CCE90420C4E900C31C60CCF846
:1019CC0004403368B34206D09C4204D1FFF764FF55
:1019DC000021FFF7E3FA87F31188BFF36F8FF8BD8F
:1019EC009B1A61EB0001AC45C4E90431C7D0DCF8AB
:1019FC0000C0C1E7A0010020680000202DE9F84FCD
:101A0C004FF01003EFF3118C83F31288BFF36F8F39
:101A1C00DFF8B0A0DFF8B0900024C9F80000DAF8C5
:101A2C0000000025504508BF0020284FE046D7E9AC
:101A3C000021D9F8003080B3D0E9046C4FEAE37E82
:101A4C00B3427EEB0C0B05DAF61A6CEB0E04C0E914
:101A5C00046422E0B21841EBE671C0E90445C7E921
:101A6C000021FFF739FF88F31188BFF36F8F83686C
:101A7C0098474FF01003EFF3118883F31288BFF3EC
:101A8C006F8FD9F80030DAF800009B1B5045C44624
:101A9C00C9F80030CAD1D7E9002100249A1841EBCB
:101AAC00E373C7E90023C9F80040FFF7F5FE2146B0
:101ABC00FFF774FA88F31188BFF36F8FBDE8F84F06
:101ACC00FFF714BE68000020C4020020A001002013
:101ADC00014800F0CBBA00BFB92E00082DE9F04F39
:101AEC0043688DB00293837815469A07804640F17F
:101AFC000D8100240E78002E00F00A81252E0BD0CB
:101B0C004B1C0393013441463046029B98470028F6
:101B1C00C0F2F6800399EDE74E788B1C252E0393CB
:101B2C00F0D00027B946BB46BBF11F0F38D8A6F141
:101B3C002003102B0AD8DFE803F02A090930090921
:101B4C00092109090928092D09091F00A6F13003EB
:101B5C00092B33D92A2E37D11BF0400F55F8043BF3
:101B6C0040F08280002BA7BF99464BF0200BC3F1AD
:101B7C0000094BF0280B01E04BF0010B039B13F811
:101B8C00016B0393002ECFD130E04BF0020B4BF0E6
:101B9C00040BF3E74BF0080BF0E74BF0100BEDE701
:101BAC00BBF17F0F19D8A6F13003092BD2D81BF04B
:101BBC00400F03D00A2101FB0737DFE70A214BF066
:101BCC00200B01FB0939D9E72E2E06D11BF0400F53
:101BDC0040F09E804BF0400BD0E76C2E31D02BD8D0
:101BEC00682E36D06A2E3CD04C2E3AD0002F46F0C0
:101BFC002003B8BF2BF04002A3F16501BCBF002746
:101C0C001FFA82FB022901D9612B2FD10727073537
:101C1C0025F00705DFF8A8A208351BF0080F66D0E1
:101C2C0056460AEB070B5E4563D1A4EB0A0A06EB9A
:101C3C000A02A9EB07096FE1742E9FD07A2E9DD072
:101C4C00D4E71BF0800F18BF4BF4007B4BF0800BDC
:101C5C0094E71BF4807F18BF4BF4007B4BF4807B24
:101C6C008CE74BF4207B89E71F4687E7A6F16301DD
:101C7C00122900F2F080DFE811F013004F00EE00A3
:101C8C00EE00EE00EE004F00EE00EE00EE00EE0077
:101C9C00EE00FE00E900EE00EE001B00EE00AF00CF
:101CAC0055F8043B01278DF818300DF1180AB4E7EC
:101CBC0055F804AB834BBAF1000F08BF9A461BF0E2
:101CCC00400F14BF39464FF0FF31504600F0B3FDC2
:101CDC000746A2E741462020029B984700280FDBCD
:101CEC00013EB742F6D34C44A41BB14698E74E468E
:101CFC00F7E7414616F8010B029B9847002892DA49
:101D0C0098F8023043F0040388F802304FF0FF34A7
:101D1C0020460DB0BDE8F08F1BF0800F34D01BF4C3
:101D2C00007F2CD0073525F00705AA4669685AF8BC
:101D3C00080B2BF010050029ADB237DA404261EBED
:101D4C00410145F480650A230DF1180B5A4600F049
:101D5C007EFDA0EB0B0301936B0662D5019B25F076
:101D6C0001019F4289B240F3A180002E00F09980BE
:101D7C0015F0100240F09C80BB460D4623E0AA46AD
:101D8C005AF8040BC117D4E7AA461BF4807F5AF803
:101D9C00041B01D10846F5E71BF4007F15BF48B2C0
:101DAC0008B241F3C01141F3C031C2E750EA01035C
:101DBC00C9D11BF0400FC6D0002FC4D12BF011029B
:101DCC00BB4695B2019740F2064115EA01021CBFD1
:101DDC0000220BF1010B2CE00A232BF010021FFA4E
:101DEC0082FB1BF0800C49D01BF400711DBF073522
:101DFC0025F00705AA46AA461ABF5AF8080B6968C7
:101E0C005AF8040B50EA010545D12BF016051BF0CE
:101E1C00400FADB242D0002F40D12BF0170295B23B
:101E2C00019715F0100248D0019B002E42D103F10E
:101E3C00010B29075AD4EB0706D5D9456FDDA9EB61
:101E4C000B03CB4601995F185B4649E010237826BB
:101E5C004BF0100BC5E7782B04D1C6F1780343F097
:101E6C001003BEE741462520029B98470028FFF649
:101E7C0047AF023447E608230026B2E7AA461BF414
:101E8C0080715AF8040BBDD01BF400711ABF614667
:101E9C00C0B280B2B6E72BF0060295B20DF1180B6A
:101EAC0054E725F01105BB46ADB28CE70D46B8E7FB
:101EBC003B460D4603F1020BBBE7DDF804B082E7AD
:101ECC00022F0008FB2E0008CDE9043241462020E9
:101EDC00029B98470028FFF613AF049B059A013329
:101EEC009945F1DCA4EB0B019B46CC180AB3414697
:101EFC003020029B98470028FFF602AF8EB90134C0
:101F0C002744019B391B994223DC1D4655BB554682
:101F1C00019AA9EB0B0922441446914434E0019F29
:101F2C0092E7414630460234029B98470028E7DA94
:101F3C00E6E640F206410D42E2D015F0020F14BF66
:101F4C002B20202015F4806F414618BF2D20013422
:101F5C00EAE741463020029B9847002804F101042F
:101F6C00CFDACDE606AB013D585D4146029B984762
:101F7C000028CBDAC4E641462020029B9847002873
:101F8C0004F10104FFF6BCAEA9EB0403002BF2DC58
:101F9C00C0E500BF704700EBC100408840087047A7
:101FAC00F8B50346FFF7F7FFB0FA80F0C0F11F0059
:101FBC0003EB800CDCF81060CA00171D0C460632CF
:101FCC008DB256B9012101FA00F0D9680143D960EC
:101FDC00CCF81040DD539D52F8BDF1000431585A35
:101FEC00D85303EBC0009E52C5805D52F4E7043A0F
:101FFC002DE9F041CC1D114424F0070421F0070118
:10200C000E1BF708B7FA87F24FF00008C2F124054F
:10201C00AD000735C2F12002ED0804604146A7600F
:10202C00C4F80C80920004F1100000F075FC6B00F9
:10203C0043F0010363807B1B04EBC5025900A4F839
:10204C0000805180A21924F83550A2F80280A353C5
:10205C0004EBC7035A88294642F001025A802046F5
:10206C00BDE8F041FFF79CBF002070470FB407B5E7
:10207C0004A951F8040B0191FEF738F803B05DF890
:10208C0004EB04B070477047FFF770B80146006866
:10209C00FFF76CB800210120FFF7F6BF08B5FEF77B
:1020AC0009FB002008BD08B5062201210020FEF71F
:1020BC004DFB002206201146FEF768FA012107228B
:1020CC000846FEF743FB002207201146FEF75EFA96
:1020DC00082201210220FEF739FB002208201146BC
:1020EC00FEF754FA092201210320FEF72FFB0022F0
:1020FC0009201146FEF74AFA0A2201210420FEF7B4
:10210C0025FB00220A201146FEF740FA0521172272
:10211C000846FEF71BFB002217201146FEF736FA85
:10212C00282206210A20FEF711FB00222820114646
:10213C00FEF72CFA002008BD0B68A3F11402082A44
:10214C009FBF03F1804303F504331A6849689BBFB2
:10215C0000200A436FF085001A6070470B68A3F1EA
:10216C001402082A9FBF03F1804303F504331A6855
:10217C0049689BBF00208A436FF085001A60704746
:10218C000B68A3F11402082A0AD803F1804303F563
:10219C0004331A684B68934314BF01200220704724
:1021AC0023F00403012B0CBF02200120704710B553
:1021BC000B6823F00403012B21D14A68FF2A1CD0A1
:1021CC00D3B203F1804303F504331868C2F34234ED
:1021DC00C2F3042204FA02F220EA02021A604968ED
:1021EC00CBB203F1804303F504331868C1F3024208
:1021FC00C1F304218A4002431A60002010BD6FF025
:10220C008500FBE77047436800205B689B680B60A8
:10221C00704743685B68D86842400A404240DA60C5
:10222C0000207047436800205B6819617047436861
:10223C0000205B6859617047436800205A68D36876
:10224C004B40D360704710B503699868F8B1884269
:10225C0019D1DC680868A142986000D1D8600020D0
:10226C0008602AB19A680A60DA68996002B9D96084
:10227C00002010E0814206D108682060D8688142B5
:10228C00EDD1DC60EBE7044600680028F2D1002AAF
:10229C00E8D16FF0150010BD91FAA1F3B3FA83F3F6
:1022AC0070B50D0E0F2691FAA1F1B1FA81F14459D6
:1022BC009B0006FA03F3890024EA03048A402243B4
:1022CC00425170BD91FAA1F3B3FA83F370B50D0EC0
:1022DC00032691FAA1F1B1FA81F144599B0006FA57
:1022EC0003F3890024EA03048A402243425170BD5F
:1022FC0091FAA1F3B3FA83F370B50D0E042691FA9B
:10230C00A1F1B1FA81F144599B0006FA03F389005B
:10231C0024EA03048A402243425170BD70B50B4637
:10232C00896821B101255E680C68854001B970BDD2
:10233C008A682A4002D030464B6898471CB1236803
:10234C0021461C46F2E72346FAE770B501241546F0
:10235C00072904FA01F2C8BF01F007014FEA022372
:10236C00C5BF8C401C4342EA030444F08064EA0776
:10237C00406822D415F0060204D12146BDE8704015
:10238C00FFF78ABF022A01D10422F6E705F4C075D3
:10239C00802D6FEA14264FEA14220BD192FAA2F286
:1023AC000123B2FA82F2C168934031400B430822F8
:1023BC00C360E2E7C3683340F9E76B0654BF012200
:1023CC0009222146FFF768FF15F0200218BF0422EE
:1023DC00214605F01805FFF78BFF082D05D10222C9
:1023EC002146BDE87040FFF76DBF0DB90122F7E73C
:1023FC000322F5E713469A0310B518D59C070FD5A1
:10240C005A072DD52122DC060CD542F0840213F498
:10241C00002F44681BD0012364688B40236111E0BA
:10242C000122F0E79C06F2D542F48272EFE713F436
:10243C00803207D0DC0611D413F0200F14BF4FF4F8
:10244C00827202224068FFF780FF002010BD5B0300
:10245C00F8D5012364688B406361F3E78422F1E7CC
:10246C006FF08500F2E7F8B51F46044640680E464B
:10247C001546FFF76AFF032F08D1012303FA06F66E
:10248C006368AA055B684CBF1E615E610020F8BDE5
:10249C0030B5036813600579046804EBC504A342E6
:1024AC0002D36FF0010030BD5C798C4201D008334F
:1024BC00F0E70020F7E74368C1F34B101B6801F00D
:1024CC001F01C05801238B40034214BF012300237A
:1024DC0000201370704710B54368C1F34B101A6895
:1024EC000123845801F01F018B40234383500020AB
:1024FC0010BD012210B54368C1F34B14186801F0EC
:10250C001F0123588A4023EA02032350002010BDE8
:10251C0038B504460D46FFF7DEFF29462046FFF787
:10252C00E8FF002038BD036882B00193019B43682B
:10253C000193019B02B0704737B503694568186871
:10254C000C468368E968DB68BBB101AA9847002890
:10255C0013DB1922019BA40053436422B3FBF4F157
:10256C00B1FBF2F002FB10131B013233B3FBF2F39D
:10257C002D6803EB00139BB2AB6003B030BD08B504
:10258C0041680B681A681868C2F3C002C007186863
:10259C0048BF42F002028007186848BF42F00402AC
:1025AC004007186848BF42F02002C00542BF6FF4D4
:1025BC00807042F008021860D00702D50868FFF757
:1025CC00B2FF930702D50868FFF7ADFF500702D59D
:1025DC000868FFF7A8FF930602D50868FFF7A3FF6A
:1025EC00104608BD10B54068026813681B06FCD580
:1025FC004FF01002EFF3118382F31288BFF36F8F49
:10260C0002681468240604D483F31188BFF36F8F17
:10261C00EAE7516083F31188BFF36F8F10BD08B5E3
:10262C004368186803681A0701D5FFF77CFF036835
:10263C009B0649BF43684FF0FF3000200B7008BD6C
:10264C0003695B681B680B6043681B68DB6803F4F9
:10265C00C063B3F5806F2FD0A3F5C06CDCF1000321
:10266C0043EB0C030B7143681B681B6903F4405369
:10267C00B3F5805F22D0B3F5405F21D0002B0CBFA7
:10268C00012303234B7143681B68DA68DB68D204AF
:10269C0003F4C06316D5002B14BF032304238B71E2
:1026AC00436800201B685B6903F44073A3F5407218
:1026BC0053425341CB7170470223D3E70023E1E728
:1026CC000223DFE7002B14BF02230323E7E7704745
:1026DC0040B1C368587810F001001EBF1878B0FAEA
:1026EC0080F0400970474FF01002EFF3118382F332
:1026FC001288BFF36F8FFEE708B5FFF7F4FF00F009
:10270C000BB900F0FBB8D0E9003213605A6000231B
:10271C00C0E90033704708B5FFF7F5FF437B23F0A2
:10272C00020343730023836008BD10B54FF0100300
:10273C00EFF3118483F31288BFF36F8FFEF752FF10
:10274C0084F31188BFF36F8F10BD38B504464FF07A
:10275C001003EFF3118583F31288BFF36F8F437B64
:10276C0013F0280F0BD183680BB1FFF7D4FF637BF9
:10277C0051B903F0FB0320466373FEF733FF85F377
:10278C001188BFF36F8F38BD03F0EB03F3E7012122
:10279C001838FFF7DABF4FF01003EFF3118083F313
:1027AC001288BFF36F8FFFF701B84FF01002EFF3F1
:1027BC00118182F31288BFF36F8F027BD2070AD587
:1027CC0081F31188BFF36F8F404080F311884FF075
:1027DC00040002DF7047437B1B0704D581F311888B
:1027EC00BFF36F8F70470122FEF730BF08B54FF073
:1027FC001002EFF3118382F31288BFF36F8FFDF792
:10280C002BFFF4E710B54FF01002EFF3118482F3B5
:10281C001288BFF36F8F03683BB1FFF75DF80020A0
:10282C0084F31188BFF36F8F10BD6FF01500F7E7BD
:10283C0000BF00207047024610B501448A4213467F
:10284C0003D01C780132002CF8D1181A10BDF0B549
:10285C0004461046C3F13707FFB203F01F03082BE1
:10286C00E6B233D0102B3ED06508A40844EA81743C
:10287C0045EAC1752D194FEA910242EB5102290923
:10288C0041EA02716D1842EB1212290A41EA026107
:10289C006D1842EB1222290C41EA02416D1842EBF1
:1028AC001242AD1842F10002EC0844EA4274D1081D
:1028BC0004EB8402A6EB4205EDB2092D0CD90134D0
:1028CC00A5F10A0541F10001EDB212E0E40844EA79
:1028DC00417406F00705C908303554EA010200F8C6
:1028EC00015BBCD1F0BD240944EA017406F00F056C
:1028FC000909092D84BFED19EDB2EDE70A449142A7
:10290C0000F1FF3300D1704710B511F8014B914223
:10291C0003F8014FF9D110BD03460244934200D194
:10292C00704703F8011BF9E7014800687047000085
:04293C00A8010020CE
:10294000690100080000000091080008C029000883
:102950007D0100080000000000000000D4290008EC
:10296000E5090008242A0008B3200008E829000827
:10297000E50900084C2A0008E5090008382A000883
:10298000E5090008102A0008E5090008FC290008EC
:10299000210E0008742A0008210E0008602A000891
:1029A000210E0008882A0008950900080000000090
:1029B0001D0F000800000000E906000800000000EC
:1029C000FE2D0008000000001800002082000020FA
:1029D00000000000512E0008A82C0008AC2C0008B4
:1029E0008E00002000000000E02D00080000000024
:1029F0000000000080000020BC0100200B2E000819
:102A0000F42B0008582C0008840000203C02002011
:102A1000192E0008082C0008582C000886000020F9
:102A20004C020020272E00081C2C0008582C0008FF
:102A3000880000205C020020352E0008302C0008A1
:102A4000582C00088A0000206C020020432E000849
:102A5000442C0008582C00088C0000207C02002028
:102A6000622E0008BC2C0008A02D00089000002059
:102A700034000020722E0008082D0008A02D000848
:102A80009200002044000020822E0008542D0008EF
:0C2A9000A02D000894000020540000203D
:102A9C0000000000A120000800000000A120000898
:102AAC0000000000A120000800000000A120000888
:102ABC0000000000A120000800000000A120000878
:102ACC00DE2D00080D070008DC2D00080D0700089E
:102ADC00DA2D00080D070008D82D00080D07000896
:102AEC00D62D00080D07000800000000A1200008EA
:102AFC0000000000A120000800000000A120000838
:102B0C0000000000A120000800000000A120000827
:102B1C0000000000A120000800000000A120000817
:102B2C0000000000A120000800000000A120000807
:102B3C0000000000A120000800000000A1200008F7
:102B4C0000000000A1200008D42D00080D0700088B
:102B5C0000000000A120000800000000A1200008D7
:102B6C0000000000A120000800000000A1200008C7
:102B7C0000000000A120000800000000A1200008B7
:102B8C0000000000A120000800000000A1200008A7
:102B9C0000000000A120000800000000A120000897
:102BAC0000000000A120000800000000A120000887
:102BBC0000000000A120000800000000A120000877
:102BCC0000000000A120000800000000A120000867
:102BDC00D22D00080D07000800000000A1200008FD
:082BEC0000000000A120000818
:102BF400FFFF00000018014004000000180000005E
:102C040040000000FFFF000000140140030000002A
:102C14001800000020000000FFFF00000010014029
:102C2400020000001800000010000000FFFF000078
:102C3400000C014001000000180000000800000022
:102C4400FFFF000000080140000000001800000021
:102C54000400000001240008132200081F220008B9
:102C6400312200083B22000845220008150A00080A
:102C740053220008000000004C2A0008382A0008EB
:102C8400242A0008102A0008FC290008000000007B
:102C94000000000000000000000000000000000030
:102CA4000000000000100240C3240008E3240008D0
:102CB400FF2400081D25000800480040D42900080E
:102CC40012020000E02C00080100000000000000D7
:102CD4000000000000000000E82C00081C000000B8
:102CE40000000400F02C000801000000F82C00088B
:102CF4000200000068200300000000006D200300B3
:102D04000000000000440040D42900081102000023
:102D14002C2D00080100000000000000000000004D
:102D240000000000342D00081C0000000000020018
:102D34003C2D000801000000442D000802000000A2
:102D440008180100000000000D1801000000000038
:102D540000380140D42900088E010000782D0008B5
:102D6400010000000000000000000000000000005E
:102D7400802D00081800000000400000882D000885
:102D840001000000902D0008020000002410010042
:102D94000000000029100100000000002B2600089C
:102DA400F12500088B250008E10C00084D260008D9
:102DB4004029000840290008B0290008B829000863
:102DC400C0290008C02900080010000000300A06CD
:102DD400050504010301020101010001696E746526
:102DE40072727570742D636F6E74726F6C6C657231
:102DF400403430303130343030007263634034302A
:102E0400303231303030006770696F4034303031E7
:102E140031383030006770696F40343030313134CC
:102E24003030006770696F403430303131303030C9
:102E3400006770696F403430303130633030006780
:102E440070696F403430303130383030007265731F
:102E540065742D636F6E74726F6C6C65720073654C
:102E64007269616C4034303030343830300073650E
:102E74007269616C40343030303434303000736502
:102E84007269616C403430303133383030000000C6
:102E94000000000000000102030406070809010203
:102EA40002030405060708090A0B0C0D0E0F101087
:102EB4006D61696E002A2A2A20426F6F74696E67F9
:102EC400205A6570687972204F53206275696C646A
:102ED400207A65706879722D76332E352E302D3533
:102EE4003336352D6732313164646631633765308A
:102EF40039202A2A2A0A00286E756C6C29002A6651
:082F04006C6F61742A000000EB
:102F0C0075200008A501000800000000A920000899
:102F1C0000000000000000004521000869210008A5
:102F2C0000000000510800088D210008000000007E
:102F3C00BB210008000000003C00002000C2010082
:102F4C0000010300000000004C00002000C2010042
:102F5C0000010300000000005C00002000C2010022
:102F6C00000103000024F400680000206800002029
:102F7C00FFFFFFFFFFFFFFFFFFFFFFFFFFFFFFFF55
:102F8C000000000000000000000000000000000035
:062F9C000000000000002F
:042FA20015E015E041
:040000050800047D6E
:00000001FF
